:020000041000EA
:1000000000B5324B212058609868022188439860DF
:10001000D860186158612E4B002199600221596106
:100020000121F02299502B49196001219960352056
:1000300000F044F80222904214D00621196600F024
:1000400034F8196E01211966002018661A6600F04E
:100050002CF8196E196E196E052000F02FF8012189
:100060000842F9D1002199601B49196000215960AB
:100070001A491B48016001219960EB211966A021F2
:10008000196600F012F800219960164914480160C1
:100090000121996001BC002800D000471248134993
:1000A000086003C880F30888084703B5996A0420EC
:1000B0000142FBD001200142F8D103BD02B5186610
:1000C0001866FFF7F2FF186E186E02BD00000240BE
:1000D000000000180000070000035F00212200005C
:1000E000F4000018222000A00001001008ED00E03C
:1000F00000000000000000000000000074B24E7A12
:1001000000200420F7010010C3010010C5010010F9
:10011000C1010010C1010010C1010010C101001097
:10012000C1010010C1010010C1010010C701001081
:10013000C1010010C1010010C9010010CB01001065
:10014000CD010010CD010010CD010010CD01001037
:10015000CD010010CD010010CD010010CD01001027
:10016000CD010010CD010010CD010010CD01001017
:10017000CD010010CD010010CD010010CD01001007
:10018000CD010010CD010010CD010010CD010010F7
:10019000CD010010CD010010CD010010CD010010E7
:1001A000CD010010CD010010CD010010CD010010D7
:1001B000CD010010CD010010CD010010CD010010C7
:1001C00000BE00BE00BE00BE00BE00BE00F04BF888
:1001D000103800BEF2EB8871B44C0010D44C001003
:1001E0003402001090A31AE700202149086006C8D5
:1001F00081F3088810471F48006800282FD10DA4FC
:100200000ECC002902D000F012F8F9E71A491B4A77
:10021000002000E001C19142FCD1194988471949E9
:1002200088471949884700BEFDE701C901C29A42C3
:10023000FBD37047D44C0010C00000206C07002096
:1002400080530010000004200000042080530010A0
:1002500000100420001004200000000070470B482C
:1002600001F0BCFF0047EFF30580C0B2704700000B
:1002700008ED00E0000000D07007002030160020DC
:100280002519001055030010111A001057560000D0
:1002900006005250ABB360530C4A00100600525097
:1002A000861C03021C4A0010060052505422A29DD4
:1002B000284A001005005250DE65F4688053001093
:1002C000F8B5C046044B10B5002B03D003490448D1
:1002D00000E000BF10BDC04600000000E415002093
:1002E0007049001070B5192084B000F08DFAD02349
:1002F00080221B0692045A6203A85A6100F0FAF8A1
:1003000001230322114903A800F09CF900242100D5
:1003100003A800F029FAFA2001344000E4B200F00A
:10032000B5FE082CF3D100240026094D210004233A
:10033000032203A8009600F0C1F90134642000F004
:10034000A5FEAC42F2D104B070BDC0466506000007
:100350001027000010B502F07BF9FFF7C3FFFEE79E
:10036000F0B5D6464F464646C0B5D02608230424ED
:10037000360673618146746101200D00002100F092
:1003800035FEB4610120002100F030FE082344272F
:100390009A469846043410E004237361012000213A
:1003A00000F024FE5346013C012000217361E4B2B9
:1003B00000F01CFE7F08002C06D04346B361FB070B
:1003C000EAD40423B361E9E7D026082704243606DB
:1003D000B76101200021B46100F008FE0120002176
:1003E000776100F003FE01200021B76100F0FEFDFF
:1003F000776101200021B46100F0F8FD74610120F3
:1004000077610021746100F0F1FDB46101200021E9
:1004100000F0ECFD4B46B8373B431F000823043483
:100420009946984610E0042373610120002100F0F2
:10043000DDFD4B46013C012000217361E4B200F078
:10044000D5FD7F08002C06D04346B361FB07EAD4F4
:100450000423B361E9E7D0260423082436060120EB
:100460000021B461B36100F0C1FD0120002174617D
:1004700000F0BCFD08230827984610E004237361B0
:100480000120002100F0B2FD4346013C0120002183
:100490007361E4B200F0AAFD6D08002C05D0B761CD
:1004A000EB07EBD40423B361EAE7D0240825042644
:1004B0002406A5610120A661002100F097FD656179
:1004C0000120002100F092FDA5610120002100F033
:1004D0008DFD65610120A661002100F087FD666148
:1004E0000120002100F082FDE0BCBA46B146A846DA
:1004F000F0BDC046F8B5CE4600234746804680B5DD
:100500000370022000F080F9D025032000F07CF970
:10051000042408232D066C6201206B6200216B61AC
:100520006C6100F063FDAC610120002100F05EFD14
:100530000823402799460826043410E004236B6101
:100540000120002100F052FD4B46013C012000211A
:100550006B61E4B200F04AFD7F08002C05D0AE616B
:10056000FB07EBD40423AB61EAE7D025082704247A
:100570002D06AF6101200021AC6100F037FD0120A4
:1005800000216F6100F032FD01200021AF6100F019
:100590002DFD6F6101200021AC6100F027FD6C6131
:1005A00001206F6100216C6100F020FDAC61012031
:1005B000002100F01BFD08230826994604348737E4
:1005C00010E004236B610120002100F00FFD4B4679
:1005D000013C012000216B61E4B200F007FD7F08BF
:1005E000002C05D0AE61FB07EBD40423AB61EAE736
:1005F000D024082504272406A56101200021A76135
:1006000000F0F4FC01200021656100F0EFFC012006
:100610000021A56100F0EAFC65610120A7610021CD
:1006200000F0E4FC67610024200001340021E4B202
:10063000FFF796FE042CF7D14046C0BCB946B04641
:10064000F8BDC046F8B54746CE4680460D001600B8
:100650001C0080B5002B0CD109290AD908000A21F9
:1006600001340700E4B201F0EBFD632FF7D836192F
:10067000F6B2114B994601E0FF2E19D043463700E0
:100680001C7828000A2101F0DBFD4B463C41595CF7
:10069000E40121433800C9B2FFF762FE28000A21B5
:1006A00001F0CEFD013E2C00F6B20500092CE3D886
:1006B000C0BCB946B046F8BD70490010F8B5574601
:1006C000DE464E464546E0B598460AAB1B78814665
:1006D0009B46244B0F0014009A4603E0002A3ED0AC
:1006E000FF2C36D04B4626001D7838000A2101F039
:1006F000A7FD53463541595CED0129433000C9B28D
:10070000FFF72EFE38000A2101F09AFD4246531EE3
:10071000013CDBB23D0098460700E4B2092DDDD86C
:10072000002A16D0FF2C14D05B465FB24346E51A70
:10073000EDB203E0013CE4B2FF2C0AD04B4619783D
:1007400020002141C9013943C9B2FFF709FEA54282
:10075000F0D1F0BCBB46B246A946A046F8BDFE2388
:100760009846DFE770490010F0B50725D026C64649
:10077000082304240D408821360600B5012073614A
:100780000D437461002100F031FCB46101200021AF
:1007900000F02CFC082308279846043410E00423BA
:1007A00073610120002100F021FC4346013C01203F
:1007B00000217361E4B200F019FC6D08002C05D033
:1007C000B761EB07EBD40423B361EAE7D024082533
:1007D00004262406A5610120A661002100F006FC84
:1007E00065610120002100F001FCA56101200021CC
:1007F00000F0FCFB65610120A661002100F0F6FB22
:10080000666180BCB846F0BD0123D0228340120649
:1008100093629361094A83009446402263441968B5
:10082000C0004A40C0211140802252011343196088
:10083000034B9C46052360444360704704C001405D
:1008400000400140F8B5CE464746914680B5EFF3EB
:10085000108C72B6104D2B68002BFCD0BFF35F8F4D
:10086000CB08C45CC7180720260001230840C640F7
:100870001A00324033420BD1834023433B70BFF315
:100880005F8F2A608CF31088C0BCB946B046F8BDB3
:10089000484601F0BFF8C0462C0100D0F8B54746E5
:1008A000CE46884680B5EFF3108C72B6214D2C6889
:1008B000002CFCD0BFF35F8F9A422DD8D408055D81
:1008C000071907242E001440E640F1071ED5072122
:1008D0008946063908E0D408055D07194C462E0004
:1008E0001440E640314211D001329342F3D201204C
:1008F0004042BFF35F8F00220E4B1A608CF31088CA
:10090000002811DBC0BCB946B046F8BD0123A340A6
:100910001D4310003D70ECE7BFF35F8F00232B6099
:100920008CF31088012040424346002BEAD00898FF
:1009300001F070F82C0100D00021044B044ABFF3F1
:100940005F8F02C39342FAD17047C046000100D0C6
:10095000800100D0044A1078431CDBB2172B00D969
:10096000102313707047C0464802002000B5054BA5
:1009700083B00100009318221F230348FFF78EFF66
:1009800003B000BD94490010BC0E0020024B186853
:100990008007C00F7047C04600C0064083680B4800
:1009A00010B5844662446144120109019A1859182D
:1009B00054684B6801209C4201D802D00020C0B28C
:1009C00010BD12680B689A42F9D8F7E7FFFFFF0FD6
:1009D00040BF002000217047F8B557464E464546B7
:1009E000DE46E0B599460CAB1C780DAB1B780600D3
:1009F00090469A460768002C11D1BC7B002C42D04F
:100A000065003B682D19033D59194B78BB73002BCA
:100A100000D1FB7300238B704B700B7004E06500FA
:100A20003B682D19033D5919B268284B944642463C
:100A3000E3181B0163441A604A465A600A9A9A6096
:100A40000B9ADA6000238B704B700B707B7B9B469C
:100A5000002B27D022007B685946B86898475B4630
:100A60005B005B443A68033B002812D05846551996
:100A7000A870D118D35C002B00D06B705B460C7053
:100A80007B73A3450FD0F0BCBB46B246A946A04637
:100A9000F8BDD3189C705119525D002A00D05A70CD
:100AA0005B460B707C7342464B46307D00F0C2FCC7
:100AB000051E06D05346002B03D12100306800F0FC
:100AC000F3FE0E9B002BDED01D70DCE7FFFFFF0F57
:100AD000F0B5DE4657464E4645460023E0B58DB09C
:100AE0000A93654B8200D45800239B460B900794D1
:100AF00000F040FC079C02000B006068EFF3108AD6
:100B000072B601680029FCD00794BFF35F8F20689C
:100B1000457B002D64D0A4685849A1466918090195
:100B2000894449460E684F68B61A9F41002F5EDD22
:100B30004B460B981A685B6800F07CFC002300268B
:100B4000002799469846079C6368BFF35F8F5A4613
:100B50001A608AF310884346002B08D10028C7D1B9
:100B60000DB0F0BCBB46B246A946A046F0BD0A9BFC
:100B7000494618022843C047089009916268EFF37C
:100B8000108A72B61368002BFCD00794BFF35F8FF6
:100B90000899099A002A44DB114303D0079B1B697B
:100BA000002B59D1079B1B68D97B002906D04A002E
:100BB000521819688C466244033A5570DD73079BDE
:100BC000013DDA68535D013353555B46079A136163
:100BD0005368BFF35F8F5A461A608AF3108887E71D
:100BE000002300260027994698460020ABE7002FF7
:100BF00001D1002E9CD1002100F0D8FD4B461E688B
:100C00005F689B68079A98464B46DB689946D368AD
:100C10005B19013B1B780A931B02034313610020FD
:100C200091E72369002BBDD033003C005B1A94414F
:100C30001A002300A74219D901225242D31759465C
:100C4000049101210391494601914146079802957B
:100C50000091FFF7C1FEB8E700F08CFB089A099BF2
:100C600006000F0092197B419942E5D89F42E6D1D8
:100C70009642E4D9E0E7C046FC150020FFFFFF0FD5
:100C8000F8B557464E464546DE46E0B53E4D8146F0
:100C90008A466A68EFF3108872B61368002BFCD09E
:100CA000BFF35F8F2E68B47B002C39D067003368A8
:100CB0003F19033FDB195A78B273002A00D1F2734F
:100CC000A968324A8C464946A21812016244116052
:100CD000514651602E4991600021D1609970597040
:100CE0001970737B9B46002B31D022001900B0682D
:100CF000736898475B465B005B443268033B00289F
:100D00001CD05846D719B870D118D35C002B00D02E
:100D10007B705B460C7073735C4519D0002622E033
:100D20006B68BFF35F8F1C6088F31088012040421E
:100D3000F0BCBB46B246A946A046F8BDD3189C708D
:100D4000D119D25D002A00D05A705B460B707473C3
:100D50004A465346287D00F06DFB061EDED021007A
:100D6000286800F0A1FDEB681B19013B19786B683E
:100D7000BFF35F8F00221A6088F310880020002ED6
:100D8000D6D108022043D3E74C020020FFFFFF0F1B
:100D9000D109001010B5104C6368002B00D010BDB5
:100DA00023000E4A1021206800F01EFC032000F0F2
:100DB000D5FA032000F0AAFB0320094900F0F4FA59
:100DC000FFF7C8FD074B9C46032360442375064B81
:100DD00080006060DC60E2E74C0200209D090010AA
:100DE000D10A001040000034FC1500200048704774
:100DF0004C020020F0B545465746DE464E46E0B56B
:100E000085B00193002305009A46984610A90978F9
:100E1000009203916A68EFF3108972B61368002B91
:100E2000FCD0BFF35F8F2E68B47B002C49D06700E5
:100E300033683F19033FDB195A78B273002A00D197
:100E4000F273A9684C4A8C4600980199A2181201C5
:100E50006244106051600E9991600F99D1604246D2
:100E60009A705A701A70737B9B46002B41D02200F7
:100E70001900B068736898475B465B005B44326852
:100E8000033B00282CD05846D719B870D118D35C32
:100E9000002B00D07B705B460C7073735C4529D0CF
:100EA000EB681B19013B18786B68BFF35F8F4246F4
:100EB0001A6089F310885346002B28D10002204382
:100EC00007E06B68BFF35F8F1C6089F31088012017
:100ED000404205B0F0BCBB46B246A946A046F0BDB4
:100EE000D3189C70D119D25D002A00D05A705B468D
:100EF0000B707473287D009A019B00F09BFA824668
:100F00000028CDD02100286800F0CEFCC8E7039B64
:100F1000002B2ED00E9B00200F99984703000B4307
:100F200027D006000F1E0FDA0098019902000B006F
:100F3000921BBB41994216D801D1904213D800921E
:100F40000193039B9A4665E700F014FA02000B0038
:100F5000B6185F413000390000900191BB4202D8C1
:100F6000EFD1B242EDD901235B42DC17009301942B
:100F7000E7E70020ADE7C046FFFFFF0FF8B5426886
:100F80000400EFF3108572B61368002BFCD0BFF39A
:100F90005F8FFF232068CEB2427B0B40B24208D065
:100FA00007685A00BC46D2186244033A9278002A75
:100FB00011D0E268090A94466344013B1B78C9B228
:100FC0008B420ED000206368BFF35F8F00221A604F
:100FD00085F31088F8BD23698B42F3D1002022618C
:100FE000F1E7310000F060FCEDE7C046F8B5040021
:100FF0000D0000F0BFF902000B00A4185D41A942EA
:101000001AD817D006267642F71736196F41AF4225
:1010100035D90026002700F0ADF932003B00121A46
:101020008B41002B16DC002B26D02900200000F07D
:10103000ABF9F8BDA042E5D907267642F71700F0D4
:1010400099F932003B00121A8B4101246442E517E2
:10105000002BE8DD30003900FFF712FE0028E4DB4A
:101060003900094A536A994204D8906AB042DCD2E6
:101070009942DAD120BFF5E7002AD6D0EAE7AF429D
:10108000C9D1A642C5D8C6E700400540F8B504005E
:1010900000F070F9FA2206000F0000232000002162
:1010A000920001F04DF9801979418F421CD819D076
:1010B00004000D0006267642F71736196F418F425D
:1010C00035D90026002700F055F932003B00121AEE
:1010D0008B41002B16DC002B26D02900200000F0CD
:1010E00053F9F8BD8642E3D907267642F71700F098
:1010F00041F932003B00121A8B4101246442E5178A
:10110000002BE8DD30003900FFF7BAFD0028E4DBF2
:101110003900094A536A994204D8906AB042DCD235
:101120009942DAD120BFF5E7002AD6D0EAE78F420C
:10113000C9D18642C5D8C6E700400540F0B54E4645
:101140004546DE465746E0B5524C83B080460E0019
:1011500000906268EFF3108972B61368002BFCD020
:10116000BFF35F8F2768B246BD7B002D3DD06B007B
:101170005B19DA1E94463B68019263445A78BA734D
:10118000002A00D1FA73A168434A8C464146AA1846
:101190001201624411604149566091600021D160A2
:1011A0009970597019707B7B9B46002B44D02A00A4
:1011B0001900B8687B6898475B465B005B443A68F7
:1011C000033B00282ED05846D1188C46019951185F
:1011D0008870D35C002B00D04B7063461D705B465B
:1011E0007B735D4529D0002732E06368BFF35F8FD2
:1011F0001D6089F310882A4B0027596A514504D392
:101200009B6A009A0137934207D3380003B0F0BCC1
:10121000BB46B246A946A046F0BD891B4B1E99416C
:10122000CFB2F2E70198D3189D701118125C002A12
:1012300000D05A705B460B707D7342463300207DB0
:1012400000F0F8F8071ECED02900206800F02CFB33
:10125000E3685B19013B19786368BFF35F8F002275
:101260001A6089F31088002FC5D120BF0902200021
:101270002943FFF783FE0A4A536A5345C5D3926A4E
:10128000009901278A42C0D29B1B5A1E9341DFB2AC
:10129000BBE7C0464C020020FFFFFF0FD109001042
:1012A00000400540F0B5D6464F464646C0B5EFF380
:1012B00005833F22134018001038EFF3108C72B6EC
:1012C000204D2A68002AFCD0BFF35F8F0122110055
:1012D00081401D4C884661631C4917000E788A4680
:1012E0003100C1400F400A4209D1BFF35F8F2F6028
:1012F0008CF31088E0BCBA46B146A846F0BD14494C
:101300008200646A51588C420FD3124BD258434624
:101310009E4353461E70BFF35F8F00232B608CF3F8
:101320001088002AE6D09047E4E70B4A9B009046DD
:1013300043441A681A60BFF35F8F00232B608CF35D
:101340001088D7E7280100D0004005402E16002065
:1013500018160020AC0E0020D03F054010B501004B
:10136000024A0348FFF76EFA10BDC046B0490010AC
:101370002B160020034B596A0A00986A596A8A4260
:10138000FAD1704700400540064A536A9942FCD89A
:1013900007D1044B02E05A6A914202D19A6A824212
:1013A000F9D370470040054070B504000D00EFF31D
:1013B000108672B61A4A1368002BFCD0BFF35F8FF9
:1013C000002D1BD0200000F05FFD164981420AD09D
:1013D000200000F061FD0121200000F03BFD012311
:1013E000A340114A1360114BA400E550BFF35F8F77
:1013F00000220B4B1A6086F3108870BD0B4BA200C5
:10140000D5500122A2400A4920000B7893430B706B
:10141000044900F06BFD0021200000F01BFDE5E712
:10142000280100D0A512001038600540AC0E002045
:101430002E160020F0B5DE4657464E464546E0B52E
:101440002E4C83B0616A0D00A66A616AA942FAD186
:1014500094461D008B420AD807D0012003B0F0BC8F
:10146000BB46B246A946A046F0BDB242F5D9EFF35D
:10147000108972B6224C21680029FCD0BFF35F8F1F
:1014800001248440E6B2B0461C491E4E4C63B3466C
:10149000367801964646019F3E435F463E70061DE4
:1014A000B6007250184A800083500B6A0020234215
:1014B0000BD04B6A1A00886A4B6A9342FAD19D425C
:1014C00002D80AD1844508D90020BFF35F8F0022DB
:1014D0000B4B1A6089F31088C0E7084B019F1C6210
:1014E0005C6343469F435B4601201F70BFF35F8FE1
:1014F0000022034B1A6089F31088AFE700400540D3
:10150000280100D02E16002018160020EFF3108CB2
:1015100072B60A490B68002BFCD0BFF35F8F012322
:101520008340074A0748136202789A430270BFF368
:101530005F8F00230B608CF310887047280100D068
:10154000004005402E160020024B9C466144890055
:10155000016070474000003410B50400FFF7FAF94D
:1015600001002000FFF7F0FFFF232371BFF35F8F1F
:1015700010BDC04610B504000120FFF7F7F90100C7
:101580002000FFF7E1FFBFF35F8F10BD70B50500CE
:1015900014001600002915D00C00002A12D06B6828
:1015A000806898477200630092191B192968033AF2
:1015B000033B002808D08A189470C818CB5C002B15
:1015C0000FD10670200070BDCB189E7088188A5C01
:1015D000002A02D104703400F4E75A700470340019
:1015E000F0E753700670EDE710B583600023CCB2CE
:1015F00043730133426004738373C4730068421CF5
:10160000012C05D90133DBB2137003329C42F9D1AE
:10161000FF2319404B00591800234018033843702A
:1016200010BDC046F8B5CE46474606000C0080B552
:10163000002907D04D0003686D18033D5A195778EB
:10164000002F04D12000C0BCB946B046F8BD7900D7
:10165000C91903398846434459788946002159708D
:10166000517073683A0021008068984733680028F9
:1016700014D042469A18947059195B5D002B00D023
:1016800053700F70270049463000FFF7CBFF390039
:1016900002003000FFF77AFF0400D3E742464146DC
:1016A0005D19AF709A185B5C002B00D06B701470E2
:1016B000E9E7C046F0B557464546DE464E46E0B53A
:1016C0000D006B0001685B19DF1E0400C85D83B06C
:1016D0000192CA1900284CD043001B18033BCB18B9
:1016E0005E78B446002E16D1019E002E3ED0E67BD9
:1016F000002E04D073009B19CB18033B5D70E5737B
:1017000000282FD10023537003B0F0BCBB46B24673
:10171000A946A046F0BD72006244033A89184A788F
:10172000904600224A7091465A7001003200200013
:10173000FFF72CFF43468246002B07D05B00216851
:101740004344033BCB185A78002A16D142465146EF
:101750002000FFF71BFF2168019BCA19002BC6D18F
:101760000028CFD043001B18033BCB1800219970F1
:10177000C8E7019B002BBAD1C4E75000801803389A
:1017800009184878834648464870587041462000FA
:10179000FFF7FCFE594680462000FFF743FF414615
:1017A00002002000FFF7F2FE8046CFE7F0B5574673
:1017B0004546DE464E46E0B583B00191457B0400C8
:1017C0006B0000685B19DF1EC15DC21900294ED095
:1017D0004B005B18033BC3185E78B446002E18D14B
:1017E000019E002E40D0E67B002E04D073009B1992
:1017F000C318033B5D70E573002931D10023280035
:101800005370617303B0F0BCBB46B246A946A04614
:10181000F0BD72006244033A80184278904600227C
:10182000427091465A7020003200FFF7AFFE4346E7
:101830008246002B07D05B0021684344033BCB1852
:101840005A78002A17D1424651462000FFF79EFEE3
:10185000019B01002068C219002BC4D10029CDD002
:101860004B005B18033BC31800209870C6E7019B30
:10187000002BB8D1C2E75000801803380918487807
:10188000834648464870587041462000FFF77EFE68
:10189000594680462000FFF7C5FE41460200200061
:1018A000FFF774FE8046CEE770B5040000292CD007
:1018B000437B8B422ED00568480040180338281817
:1018C0008278002A21D053009B18033BEA5CEE1873
:1018D0008A4202D11BE0002A08D053009B18033B28
:1018E000EB185A788A42F6D142785A7000230122C6
:1018F000837043702000FFF7DDFE617B0200200053
:10190000FFF744FE6073012000E0002070BD4378C3
:101910003370EBE701221900FFF7CCFE6073012062
:10192000F4E7C046F8B52B4A2B4B2C491A602C4AD9
:101930002C4B1A6014008B689C43FBD12A4D2B4E14
:10194000B54208D2013E761BB60808CD9847230061
:101950000134B342F9D100F07BF8254A214B1A60DB
:101960001E4A9368DB43DB01DC09002BF9D14022DE
:10197000204B214D214F9A675A671A67DA66BD429C
:101980000BD20026013F7F1BFF082800FFF7E4FD74
:10199000083533000136BB42F7D1194E194DC0222C
:1019A000A968300000F03CFDAE60FEF7C5FF00F016
:1019B000D1FBFFF7EFF9144D144EB54208D2013EAA
:1019C000761BB60808CD9847230001349E42F9D112
:1019D000F8BDC046BFCDFFFF00E0004000C00040A2
:1019E000FE7F3C0000F00040540700206407002008
:1019F000FFFFFF0100F001404C07002054070020CA
:101A00000000002000ED00E0640700206C070020CB
:101A100000BEFDE70FB400B5084883B000F0DCFD60
:101A2000049B002B07D005A91800019100F0B6FB1C
:101A3000034800F0D1FD00BEFDE7C046D4490010C8
:101A4000E449001010B50148FFF7E4FFE849001031
:101A500030B50C2083B000F06BF9FEF797FF00283B
:101A60000ED09A4B9A4A1A605A609A60DA601A61EC
:101A70005A619A61DA611A62964A5A6203B030BDBD
:101A8000954CA06700F0A8F90122944B1A60636C92
:101A9000012BFCD10322924B1A608F4A936B012BCE
:101AA000FCD1C0228F4B92011A608F4B8F491A6074
:101AB00010008B689843031EFAD1022401218C4A3E
:101AC0008C480633009400F09BF905238A4A0121D3
:101AD0008A48009400F094F9894B5A68FF2A02D88A
:101AE000802252005A608022784C7D4B216912017D
:101AF000834D1A60002905D0606900F0A1FB013018
:101B00000138FDD1E0217E4B02201A68114080226D
:101B100052012A43116019684840032101401160B5
:101B200004219A681142FCD08022802192012A432C
:101B300009011160802252005A60724B2361724B7E
:101B40005968FF2900D85A600321644A6E4B11601E
:101B500002399A681142FCD0E0201A6810408022B5
:101B600052011A43106018684840032101400220C6
:101B7000116065498A681042FCD0802292011343AB
:101B8000802212011A608022604B52004A60636119
:101B90005F4B5968FF2900D85A6080225D4BE1698C
:101BA00012015B4D1A60002905D0606900F048FB06
:101BB00001300138FDD1E02255490B681A408023DD
:101BC0005B012B431A60802380229B012B4312016F
:101BD0001A6080223E4B52004A60E3614E4B5968C6
:101BE000FF2900D85A6080224C4B216A12014A4DCD
:101BF0001A60002905D0606900F022FB013001382D
:101C0000FDD1E02244490B681A4080235B012B433D
:101C10001A60802380229B012B4312011A608023CB
:101C200080225B004B602A4BD20223623C4B5968F6
:101C3000914200D25A6080223A4B616A1201384DBB
:101C40001A60002905D0606900F0FAFA0130013805
:101C5000FDD1E02232490B681A4080235B012B43FF
:101C60001A60802380229B012B4312011A6080237B
:101C7000DB024B60174B63622B4B5A68FF2A02D87A
:101C8000802252005A608022284BA1691201264D01
:101C90001A60002905D0606900F0D2FA01300138DD
:101CA000FDD1E02220490B681A4080235B012B43C1
:101CB0001A60802380229B012B4312011A6080232B
:101CC0005B004B60114BA361D8E6C046C00E0020FC
:101CD000006CDC021BB70000008000403CB00040FC
:101CE00030B0004000E0004000F0004000C0004084
:101CF000002F68590080024000389C1C00C0024040
:101D000030800040001BB7003C8000404059730702
:101D10005480004054B000406080004060B00040FB
:101D20006C8000406CB000404880004048B00040EB
:101D30008023024A9B000343D36270470080054022
:101D400010B5140080221A4BD2051A6000282CD03E
:101D50000123184A1843184BDA61184A42401A62A4
:101D6000596298628022124BD2051A601449154AB2
:101D70001160E022D2041A60002C12D063011B1BF8
:101D80009A008023121912015B049A4200D30E4A72
:101D90000E4B1A60084B5A6080220D4BD2051A6018
:101DA00010BD0C4A094B1A60F4E7034BD861D9E720
:101DB00000B00540D3C007B0008005402D3FF84F6C
:101DC000FCFF010008200140FFFFFF00DC150020A0
:101DD00000A00540A0860100AA23064A1B0113604B
:101DE0002F230549D360054B19605368002BFCDA9B
:101DF0007047C0460040024000B0FA000060024058
:101E0000F8B51E0001235B42436000230400836099
:101E100001600C20170000F013FA4101091A8D012E
:101E2000691AC90009188901380000F009FAC021AF
:101E3000231D890119432123A0600B602268002A19
:101E4000FCDA069B36041B031E430823E6600B6086
:101E5000F8BDC04601238340002904D0034A136023
:101E6000034A13607047034A1360FBE780E200E017
:101E700000E100E080E100E001238340014A1360BB
:101E80007047C04600E200E0024B10309B688000C3
:101E9000C058704700ED00E070B50D00EFF31086FC
:101EA00072B60F4A1368002BFCD0BFF35F8F0D4B47
:101EB00010309B6884001B590B4A934203D09D420B
:101EC00001D0FFF7BFFD074B9B681D51BFF35F8F2C
:101ED000BFF35F8F0022024B1A6086F3108870BD3B
:101EE000240100D000ED00E0CD010010F0B5DE4689
:101EF00057464E464546E0B50C0083B0EFF3108AD6
:101F000072B65A4A1368002BFCD0BFF35F8F1022C1
:101F1000914681444A46564B96009B689D59554BC5
:101F200098469D4205D0A54216D0534FEB1B2F2B50
:101F300014D94F4B9B689D51BFF35F8FBFF35F8FE9
:101F400000224A4B1A608AF3108803B0F0BCBB46EB
:101F5000B246A946A046F0BD1D00EAE70123834032
:101F60009B465A46454B1B681A4000925A46444BC2
:101F70001A60BFF35F8FFEF776F90190002803D057
:101F8000814501D0FFF75EFD01232A0006209A4318
:101F90001300DB1B5B4141495943090D93681056FF
:101FA0009C420AD15AE043001B189B00FB1898681A
:101FB000A04211D006201A0018560028F3DA009B20
:101FC000002B05D05A462F4B1A602C4B1A60B0E7F5
:101FD0005A462B4B1A60ACE706201856002821DB26
:101FE0004200111889007C188846A1689960E1793F
:101FF000D97106216156997100291FDBA488F91A4D
:102000006405241544440919E0240905490D2402F6
:102010002143998012181C4B9200BF181A7818702F
:10202000BA71CCE7019800280BD1FF3090711748A6
:102030009080154A107811709871C0E7BD2109028F
:10204000E7E7134A1349D21A083A5002400D0143F8
:102050009980114952080A43DA80B0E7130000283A
:10206000BEDA019A002AECD14546E2E7240100D00D
:1020700000ED00E0CD0100107402002000E100E05E
:1020800080E100E080E200E02C16002000BDFFFFB0
:10209000AE02002000F0FFFF00F8FFFFAAAA000038
:1020A000F8B5012504000543FEF7DDF8EFF3108CC9
:1020B00072B6214A1368002BFCD0BFF35F8F1F4E0E
:1020C0002200B7681E49521A5241214B53431B0D3F
:1020D0008200B8585BB2A8421CD006228A569A42A7
:1020E0001CD012228A569A4222D01E228A569A4226
:1020F00020D02A228A5603209A4210D0114A117801
:102100001370A171BFF35F8F00220B4B1A608CF329
:102110001088F8BDB1680C488850EFE700204200F5
:10212000121892008918FF228A71084A8A80E5E70E
:102130000120F4E70220F2E7240100D000ED00E0E6
:10214000740200202C160020CD01001000BDFFFFFE
:10215000AAAA0000F0B500220324FF278026200051
:102160003D00094B11009C461040C0008540A14332
:1021700061440B680132AB43350085402B430B6053
:10218000202AECD1F0BDC04600E400E010B50028E4
:1021900000D110BD00F012FAFBE7C04610B5094AA5
:1021A0000300146884B0002C08D001220091064876
:1021B000524203A9A047012004B010BD00F00CFA60
:1021C0000020F9E7D81500208D21001001480421D6
:1021D000014B1847C0020020FD210010142310B548
:1021E0000100188804331B88984710BD162310B5CA
:1021F0000100188802331B88984710BDF8B5474680
:10220000CE4680B50F1E19D014239946043304001E
:102210000025012698464B461888434621681B88AE
:10222000984701C4431E9841013540420640AF42E1
:10223000F1D13000C0BCB946B046F8BD0126F8E780
:10224000134A936F9B0813D210665166002905D07C
:10225000FFE7FFE7FFE7516F106F704704B50028F5
:1022600001D00020C04302F063FB002104BDC04642
:10227000936F5B08FDD3F0B5946ED56E576F166FF4
:10228000FFF7E2FF9466D56657671667F0BD00005A
:10229000000000D0132370B51D78012D10D00BDD88
:1022A0001948FFF7A3FF194C01008022200000F01D
:1022B000B7F8022D01D070BD144C154BA364FAE79A
:1022C000134B124C23606360A360E360236163617E
:1022D000A361E36123626362A362E36223636363D6
:1022E000A363E36323646364A364E36423656365B6
:1022F000A365E36523666366A366E3662367636796
:10230000A367E367A364D6E753440000780800207E
:102310001523001007B5604601880A0A0230DF2A3B
:10232000FAD1C9B2820804D302884088000410435D
:1023300000E00068014A5050039007BD7808002073
:1023400051434343C9188C46110C83B24B4310B41C
:10235000040C614392B280B2504362431C041B0CD4
:10236000001910BC59411304120CC01851416144AA
:1023700070470000132310B512481C78FFF736FF92
:102380000100012C0AD003DD80220F4800F048F83C
:102390000E48FFF723FF0E4B186010BD0A4C542265
:1023A000200000F03DF80B4B6365A365E3652366F1
:1023B0006366A366E36623676367A367E3672362D5
:1023C000E361E5E753460000780900204C33000044
:1023D0000C160020D923001007B5604601880A0AB0
:1023E0000230DF2AFAD1C9B2820804D302884088B9
:1023F0000004104300E00068014A5050039007BDFC
:102400007809002001480421014B1847D002002020
:10241000FD210010014B1B6818470000D00200206E
:10242000014B5B6818470000D0020020F0B5D6468B
:1024300046464F468246C0B515000E00002A39DDDB
:102440004B1E98461E4B0020002499460CE0434644
:102450001B5D671C0D3B5A425341325DDBB20A2AB9
:102460000AD0BD4219D03C00002CF0D15346325D59
:102470001B7C671C0A2AF4D1002BF2D153461B683F
:10248000A04204DA211A3018984753461B68484680
:10249000022198473800BD42E5D1A84204DA5346EC
:1024A000291A1B6830189847335D0D3B5A42534137
:1024B00052461374E0BCBA46B146A846F0BDC046C9
:1024C000584A0010F0B557464546DE464E46D023E2
:1024D000E0B51B061C68354B83B007000D001800E3
:1024E00001A990469A4602F02BFA8146002807D1AE
:1024F000019B9C4204D0504602F032FA01239946D7
:102500006B1C03D1380002F071F90500284B1C68E0
:10251000002C2FD00A23274E9B4602E0E468002CB3
:1025200028D02268002AF9D03368002B01D0A342BA
:10253000F4D1637C002B27D02A0039002000FFF75C
:1025400075FF4346002BE9D06B465A461A71637CEF
:10255000002B1DD0237C2268002B22D0012101A852
:1025600090476B461B790D3B5A4253412374E468F4
:10257000002CD6D14B46002B0FD103B0F0BCBB468C
:10258000B246A946A046F0BD290038009047D8E7DA
:102590000121236801A89847C0E7504602F0C0F91E
:1025A000EBE7022104489047DBE7C0464C070020D8
:1025B000500F0020540F0020584A001010B582B070
:1025C0006B4604000022D81D01210470FFF77AFF3A
:1025D000200002B010BDC04670B5040002F006F93C
:1025E0000122010005002000FFF76CFF084B1C686A
:1025F000002C06D06368002B05D09847E468002CB7
:10260000F8D1280070BDE468002CF3D1F9E7C0468A
:10261000500F00200D4A1368002B13D0834202D1C3
:1026200009E0984208D01A00DB68002BF9D1002994
:1026300000D0D06070471A000029FBD1DB68D3605E
:10264000C160F7E70029F5D01060F3E7500F0020D4
:1026500010B500F031F910BD7047C0460022014BA3
:102660001A7070472D1600204B790020FF2B0BD1DC
:102670008B79002B08D1CB79012B05D1082A03D9FE
:102680008A78024B09301A707047C0462D16002018
:10269000012070470120704770B5144A4B790879C2
:1026A00012781B02034300209A4200D070BD4B7881
:1026B000012B08D0022BF9D1002064220C49FFF72E
:1026C0003FFB0120F2E7CA788C7812020500144320
:1026D000D20502D5620A93401D000648FFF77EFD31
:1026E0007F210300214028009847C0462D16002076
:1026F0000020042055420000012303700048704769
:102700005C4A001048780B788A780002184312045B
:1027100010439622CB7810B51B060343D200934298
:1027200000D010BD0348FFF759FD00210300080049
:102730009847C0465542000070B5184C82B006005C
:102740000D00200001A902F0FBF8002808D1D023D9
:102750001B061B68019A9A421CD0200002F000F967
:10276000002001F087FB002807D103256D422000DF
:1027700002F0D6F8280002B070BD002001F094FBF2
:102780000028F2D02A003100002001F09BFB051E3A
:10279000EBD0ECE703256D42ECE7C04610160020B5
:1027A000F0B5DE464F464646C0B5334B82B0814653
:1027B0000D00180001A99B4602F0C2F8002808D1BC
:1027C000D0231B061B68019A9A424FD0584602F04C
:1027D000C7F8002001F04EFB00283FD00024002D58
:1027E00041DD264E11E04B460020191901F0E4FBB3
:1027F000804600F0B7FC002001F09EFBFEF7BAFD1A
:10280000306071604444AC422DDA002001F0F0FBEE
:102810002F1B0200B84200DD3A00002AE3D100F08D
:10282000A1FC002001F088FB002001F023FB002820
:1028300019D0002001F0DCFB0028E4D1FEF79AFD5E
:10284000326873680F00002184460D4812184B410E
:102850009F4208D8D7D19445D5D904E00020002163
:10286000064B18605960584602F05AF802B0E0BCB6
:10287000BB46B146A846F0BD1016002070080020E7
:1028800020A107001F2010B5FFF7F6FAFA2000215B
:10289000800010BD10B5074C0021200002F050F858
:1028A000002800D110BD00F05DFC200002F038F8D7
:1028B000F8E7C0461016002070B51E4B84B01B7898
:1028C00001F068FD1F201C49FFF7E6FA01211F20D7
:1028D000FFF7C0FA1948FEF73FFEFEF787FA060039
:1028E000FEF748FDFA2204000D00002392001219A1
:1028F0006B41994214D811D001210291002101911C
:102900000F4930000091FEF775FA0400631E9C41E8
:10291000E4B2002808D1200004B070BD9042EBD989
:1029200001225242D317E7E701210648FFF772FE62
:10293000F1E7C046D04C001095280010101600207A
:1029400085280010E002002000487047284B001046
:1029500000487047D44A001030B5002806D1C12580
:102960001148124BAD004380058030BD052818D8B2
:102970000F4B8000C4580C480123811C013C04E02B
:1029800001330A800231142B08D0E25CDDB2002A48
:10299000F6D1C0236D009B001D43E5E7CA25AD00BD
:1029A000E2E70020E1E7C046280F0020090400000C
:1029B0003C4B00109823F0B54546DE4657464E4640
:1029C000424AE0B5D358802498461D00102385B0B4
:1029D0000393434664022540234214D00121392049
:1029E00000223B4B25001954597147315A541A752E
:1029F00000200132374901F023F88022364B920241
:102A00001A65364B03934346DB060DD480234246BA
:102A10005B011A4238D1454552D105B0F0BCBB46E6
:102A2000B246A946A046F0BD284B9F6D9A46002F9E
:102A300024D0294B002501249B4603E06400013586
:102A4000202D1BD02742F9D05346DB6D5B4668260C
:102A500001229C656B085E4334239146AA4353438D
:102A6000F6181B4B9C466644300000F03DFA0028E7
:102A70001AD1A74301356400002FE1D180234246DB
:102A80005B01039D1A42C6D00022154900200A703E
:102A90000E491D430A600132012100F061FF8022CE
:102AA0000D4B12031A65B6E74B46F26931790020E7
:102AB0000093002300F0ECFF300000F0E9F9D8E7C4
:102AC000414608486940FEF7A5FFC0460000115086
:102AD000580F00200000105000301150100001006D
:102AE0002A160020544B001010B501210520FFF7D5
:102AF000B1F910BD094B10B501221970392100231D
:102B00000748425442714732835403750022002122
:102B10003430013300F066FA10BDC0462A1600209A
:102B2000580F00208022024B5202DA647047C046E0
:102B30000020115070B5050000F082F905201C49F5
:102B4000FFF7AAF9D0221B4C00212000D200FFF78A
:102B500061FC0022184B19491A70194B402019606A
:102B6000352601231749E3706371E062E1600A6072
:102B7000A3554C36FF36268700262066243026547F
:102B800011491248A26021612370E286206402602C
:102B9000E2633432A3540E4A6164136480239B05BC
:102BA000D36490230B492800D150FFF7BBFF70BDC1
:102BB000B5290010580F00202A160020800110505F
:102BC000E0150020840010500001105080001050CB
:102BD00000001150101001000B785B0602D14B78F9
:102BE000052B09D0012139200022064B59711954B7
:102BF00047311A755A547047034B1A78034B1A60C1
:102C0000F0E7C046580F00202A160020000011509F
:102C1000F8B54746CE46072380B54879CC780A797F
:102C200003408F78A4071B021343A20F944614009D
:102C30007F207AB29146682134223840FE09414310
:102C4000724352184946C9433C4DC90FAA18D17066
:102C5000414241411771567090705171012C5ED004
:102C6000402B60D834226821724341435218AA187D
:102C70001100674630310F704F46D362C100002FFC
:102C80003DDB2F4FBC4600276144D1600F60002818
:102C90003DD02C4FC100BC466144916068272A4A50
:102CA0004743116890463422BC4672436244AA18D6
:102CB0001161402B00D240233F22CB18134201D098
:102CC0009343403342461360204B682259403423DB
:102CD000A4060C43A021734342439B18EB189B6846
:102CE00009060C431C6034235E4334335843673B6E
:102CF0003618AB550120C0BCB946B046F8BD144FDC
:102D0000BC4600276144D1600F6000280FD13423F6
:102D100000227343EB189A600E4A1A61E3E780229F
:102D2000D20093429ED319000B48FEF773FE074F63
:102D3000C100BC4661449160B0E7C046580F002016
:102D40008400105004001050E015002000001050C6
:102D50008000105000011050684B001010B50C009E
:102D6000342011001A00E30958437F2323406824CC
:102D70005C43044B0019C018012300F033F9012013
:102D800010BDC046580F002070B57F253420682341
:102D90000D40CC096B4360430C4EC018301883784B
:102DA000002B05D143785A425341094A01339366B7
:102DB00080220849120100F075F8342101234C43A8
:102DC00034314D4364193419237570BD580F0020F8
:102DD00000201150FFF7FFFF70B57F2534206823D6
:102DE0000D40CC096B4360430C4EC01830188378FB
:102DF000002B05D143785A425341094A0133936667
:102E00000022084900F04EF8342100234C433431AD
:102E10004D4364193419237570BDC046580F002006
:102E200000301150FFF7FFFF034B8000C25810B570
:102E30000248FEF7EFFDC046F4020020904B001060
:102E400080220E4B520410B51A600D4B0D491A60CA
:102E500010008B689843FBD10B4C9C220021200072
:102E6000FFF7D8FA8022002152010848FFF7D2FA72
:102E7000092363670333A36710BDC04600E0004029
:102E800000F0004000C00040000011500000105051
:102E9000002300213222838281548361C361036253
:102EA0008362704710B5C368002901D01C682140B7
:102EB000002A11D08024E400114322420CD01A6869
:102EC00022420BD1074A0A401A60FFE7FFE7FFE7FB
:102ED000FFE7FFE7FFE7C368196010BD817840781E
:102EE000FFF7A2FFFFFBFFFFF8B5467D0400002EB1
:102EF00000D165E0C368C0781D68E169AD05AD0D1E
:102F0000002842D16918E161A269551A402D2ED8D6
:102F10006B189B1A5F427B412427DBB22562E35585
:102F20008A424AD347D0002823D08022D2002A43A5
:102F30006179002902D080208001024301204140B4
:102F40006171002B02D08023DB011A43E1680B681A
:102F50005B053AD41F4B13400B60FFE7FFE7FFE729
:102F6000FFE7FFE7FFE70020E3681A60F8BD4025B0
:102F7000CEE7A36A2A009C4620696144FFF750FA15
:102F800084221202E35D2A43D2E7A36A2A0058187A
:102F90002169FFF745FAE369E078E918E161002863
:102FA000B2D0236A9D42AFD2002301222362243390
:102FB000A161E254DAE73000D8E70748FEF72AFDBE
:102FC0008178064A0648FEF725FDA1786078FFF76C
:102FD0002BFFC046FFFBFFFFDC4B0010F40200207C
:102FE000B04B001070B50400002B49D0437D002B7E
:102FF00003D000230375322023540023A261E36130
:10300000151C402A31D80123ADB2521B63755342BF
:103010005A41242625230020D2B22562A162A2555E
:10302000E054E378002B22D08023DB002B4361792E
:10303000002902D0802080010343012041406171BA
:10304000002A02D08022D2011343E1680A685205A7
:1030500019D40F4A1A400A60FFE7FFE7FFE7FFE7CE
:10306000FFE7FFE7E268136070BD4025CBE72A0069
:103070002069FFF7D5F984231B02A25D2B43D6E715
:10308000FFF732FFF0E7A1786078FFF7CDFEC0468A
:10309000FFFBFFFF024B5878431E9841C0B27047B8
:1030A000AC0D0020024B18784007C00F7047C04697
:1030B000AC0D0020F8B5372200212148FFF7AAF90E
:1030C000204C2000FEF748FA1F4B1C601F4C2000CC
:1030D0001830FEF74FFA200001F056FB1C4B1D4E36
:1030E0001D4D1C60002E04D02800FFF705FB1B4B74
:1030F000186000242B78002E19D0194E174F9C42CF
:103100000FD319D13300984701342B78E4B2A3428E
:10311000F5D20020FFF70EFD0020FFF7E5FC0120AF
:10312000F8BDE3003A681B1B9B009B58EBE700F0DF
:103130006DFF2B78002BECD000231B68FFDEC04610
:10314000AC0D0020640D0020E40D0020FC020020E6
:10315000E80D0020F9260010281600207C0A002027
:103160000D400010F0B5DE4657464E464546E0B5E8
:103170008BB001F01FF9002800D123E1B34B07AF5A
:103180009A46B34B9B4653461D68AA69EFF31081DC
:1031900072B61368002BFCD0BFF35F8FE961280083
:1031A000390001F063F9AA690400EB69BFF35F8F8E
:1031B0000021116083F31088002800D102E17B78A0
:1031C000082BE0D85A469B00D3589F467B68002BBB
:1031D000D9D0B8689847D6E77F2239799D4B0A4005
:1031E0005400C8091B191B18180001252030447908
:1031F000AC43447144790335AC434471002A00D197
:10320000E7E0954ADB7C002A06D0944A1278934284
:1032100000D26EE19B1ADBB2002B00D0D2E0904CC2
:103220007A793878BB68A047ADE78A4B0126984683
:1032300042461B780020334313703B78994600F0D8
:103240008FFD60233D792B40602B0DD0402B00D1AA
:10325000DBE0ED06ED0E012D00D155E1022D00D190
:1032600012E1002D00D1E2E038780021FFF78CFD5B
:1032700080213878FFF788FD85E77A4B002B82D0D4
:1032800000E000BF7FE7784B002B00D17BE7714B5C
:1032900018780007C00F00E000BF74E76F4D6E4A5A
:1032A00000242B78002A00D199E0704EA34209D85F
:1032B000A34200D096E00134E4B29C4200D962E718
:1032C000A342F5D93168E2008C46121B9200624499
:1032D0009269002AEFD03878904701342B78E4B215
:1032E0009C42E3D94FE7372200215A483E78FFF746
:1032F00091F81022FF215E48FFF78CF85548122202
:10330000FF211330FFF786F800F020FD534D524A9D
:1033100000242B78002A00D170E0564A9046534A88
:103320009146A34245D866D14346300098470134C0
:103330002B78E4B2A342F4D24F4B002B00D122E70A
:1033400000E000BF1FE7434B3722984600211800DA
:103350003E78FFF75FF843461022D81CFF21FFF7A5
:1033600059F840461222FF211330FFF753F800F0BE
:10337000EDFC3A4D384A00242B78002A35D03B4AE0
:1033800091469C420CD336D13A4B300098470134D9
:103390002B78E4B2A342F4D242463B799370F2E632
:1033A0004A461268E30094461B1B9B0063445B681B
:1033B000EBE74A461268E30094461B1B9B006344FC
:1033C0005B68B2E70BB0F0BCBB46B246A946A0466C
:1033D000F0BD7A793878BB6800F0D6FCD3E6002BD4
:1033E00000D1D0E600239B69FFDE300000F04AFEEA
:1033F0002B78002BD0D000235B68FFDE300000F07C
:1034000041FE2B78002B97D0F5E71C4B002B00D109
:103410002AE71B48002801D000F0A2FC484608A972
:1034200000E000BF0400002C00D0ACE61CE7202B1D
:1034300000D19AE0002B00D016E77B79092B00D948
:1034400012E7104A9B00D3589F46C046E80D002063
:10345000084C0010AC0D0020F926001028160020A2
:103460004142001000000000000000007C0A002023
:10347000AF0D00208540001000000000000000009B
:10348000000000002C4C00107F22397A0A40082AE4
:1034900000D9E9E6C8090190002B00D182E00024A0
:1034A00053000293019A029B94464344D64A6344D4
:1034B000DB7C002A06D0D54A1278934200D200E184
:1034C0009B1ADBB2002B00D0F2E0D148D14D00F0C6
:1034D00047FC4846EB6808A99847002800D1E7E078
:1034E00060223B791A4200D04DE6002000F038FC03
:1034F00049E6DA00D31AC84A9B001268D318002B99
:1035000000D15FE75C698BE63B7A0F2B00D9ABE615
:10351000BD4A4344DB78002A05D0BC4A1278934266
:103520005ED39B1ADBB2002B00D09DE6B848B94CA5
:1035300000F016FC4846E36808A99847002800D028
:1035400021E6602211003B7919401A4200D08BE637
:103550007B790A2B00D087E606AB9A1C11700123F9
:10356000484608A900F094FB0DE63B7A0F2B00D9E2
:103570007AE6A54A4344DB78002A06D0A34A1278AB
:10358000934200D2C7E09B1ADBB2002B00D06BE65F
:103590009F48A04C00F0E4FBE368484608A9984720
:1035A000040040E77B790393012B00D19DE0032BBE
:1035B00000D190E0002B00D056E65300019A029310
:1035C00094464344634420335B7906AA9B07DB0F90
:1035D000023213804846022308A900F059FB61E734
:1035E0008D4ADC00E31A14689B00E418002C00D11B
:1035F0003AE620699CE7FB88012B00D034E643467D
:1036000008221B7893434246484608A9137000F0ED
:1036100027FBB8E543460220197806AB9A1C8B06B7
:1036200089080140DB0F0B4313804846022308A999
:1036300000F02EFBA7E54346BA7903925B78002B96
:1036400002D1002A00D082E04346039A484608A9E6
:103650005A7000F005FB96E5434606AA5B780232F5
:1036600013704846012308A900F012FB8BE5FB8884
:10367000B8791B0A0F2B00D9F6E5684A9B00D3588E
:103680009F4608A800F072FB4846B979FFF732FA66
:10369000434602221B7813434246137073E5FB88AE
:1036A000012B00D0E0E5434608221B781343AAE72C
:1036B00060223B791A4200D0B5E6002000F050FBB2
:1036C000B1E6554ADD00EB1A15689B00ED18002D98
:1036D000EED02869FBE6FB8852000292002B25D031
:1036E000484608A900F0BCFADCE6FB8852000292CA
:1036F000002BF5D14846FFF76FFB019A029B9446D9
:103700004344634420335A790399AA435A715A793E
:103710008A435A71E4E7404ADC00E31A14689B00CC
:10372000E418002C00D19FE5206933E74846FFF7F5
:103730002BFB019A02219446029B434463442033AD
:103740005A790A435A715A7916435E71C8E7501E76
:10375000C0B2FFF7FDF8002800D185E54378022BC1
:1037600000D081E50121C2790500931152110B406F
:103770000A4012015B011343424612782F318A43FB
:10378000134342461370C37882781B021343C31855
:1037900009350493049BAB4200D8D1E000236A783A
:1037A00002930B2A04D12B780295EB181D005A784E
:1037B000042A00D058E5049B134A5B1B9BB201937B
:1037C000124B00241B78002A10D12BE09C4235D1EB
:1037D000134B29004846019A9847002831D10B4BDA
:1037E00001341B78E4B2A34200D23DE59C42EDD205
:1037F000094B1B680593059AE30094461B1B9B002D
:1038000063449B68E5E7C046F926001028160020AF
:1038100095410010944C00107C0A0020544C00107C
:10382000A940001029004846019A00F03DFC061E00
:1038300008D1474B1B78002B00D115E500239B686E
:10384000FFDE0600082E00D80EE5019BB34200D231
:103850000AE54346AA789B18D978FF2900D003E5EA
:10386000DC70029B002B14D018009B78934200D090
:10387000FAE401796A79914200D0F5E4C278012A2C
:1038800007D90433013A434418002100D2B2FEF7AD
:10389000C1FD7F212A0000238C465178052907D1DC
:1038A000614690780140490041441331C0090C54ED
:1038B00011785B189BB25218B342EED3244BAD196A
:1038C0001B78A34200D365E7CEE4224B002B00D146
:1038D000CAE400E000BF040006AB9D1C0222A11C4C
:1038E0002800FEF79DFD220048462B8808A900F01D
:1038F000CFF9002800D046E4B6E4174B002B00D1E6
:10390000B2E400E000BF021E00D1ADE448461378E7
:1039100008A900F0BDF9ECE73989FFF71DF8021E90
:10392000F4D1A1E4FFF714F8041ED5D19CE4FFF70D
:103930000BF81223020008A9484600F0A9F9D8E7BD
:10394000064B002B00D17FE600E000BF7CE6C046BE
:103950002816002000000000000000000000000009
:1039600030B585B005000C000C22002101A8FEF73F
:1039700051FD6B461D715C71042C4BD005D8022C97
:1039800030D0032C15D105B030BD052C11D12A4BF8
:103990001A78D207F7D504211A788A431A70274B70
:1039A0001C68A269EFF3108172B61368002B09D16D
:1039B000FBE7224B1C68A269EFF3108172B6136813
:1039C000002BFCD0BFF35F8FE161200001A900F064
:1039D00019FEA269E369BFF35F8F0021116083F3D1
:1039E0001088D0E70121144B1A788A431A701A788C
:1039F0000331A2431A7000225A701A788A431A704F
:103A00000E4B1C68A269EFF3108172B61368002B8D
:103A1000D8D1FBE7084B1A78D207B4D504211A781D
:103A20000A431A70054B1C68A269EFF3108172B645
:103A30001368002BC6D1FBE7AC0D0020E80D002079
:103A4000002330B585B001AD6B80287006330822A5
:103A500002A86B70FEF7E4FC0C4B1C68A269EFF344
:103A6000108372B611680029FCD0BFF35F8FE36149
:103A70002900200000F0C6FDA269E369BFF35F8F53
:103A80000021116083F3108805B030BDE80D0020DF
:103A9000F0B5C646804600B584B001AC0F001600F4
:103AA0000021082220001D00FEF7B4FC43462370CD
:103AB000072363700F4B65711D682771A660AA69A3
:103AC000EFF3108372B611680029FCD0BFF35F8F4B
:103AD000EB612100280000F095FDAA69EB69BFF3B6
:103AE0005F8F0021116083F3108804B080BCB8465A
:103AF000F0BDC046E80D0020F8B54746D64680B573
:103B00009846089B06000C00171E9A4621D00025F7
:103B100006E05246137023780135E418BD4218DAE6
:103B20006378052B17D1E1788907890F414512D1B8
:103B300021003000FFF76CF800280CD0A378DA09D8
:103B4000012AE6D1099A013513702378E418BD42A1
:103B5000E6DB012000E00020C0BCBA46B046F8BD5C
:103B600010B5FFF755F810BD70B57F240C40630009
:103B7000144CC909E418641820346379DB07DD0F9D
:103B8000002B18D163795B0701D5280070BD012196
:103B90000D4E4942306800F0DBFE6379DB07DD0F34
:103BA000002B0AD163795B0708D4042263790125CD
:103BB0001343637102E00025E7E70025306800F059
:103BC000AFFEE2E7AC0D0020E40D002070B50C0064
:103BD00001210F4D4942286800F0BAFE7F212140A3
:103BE0004B000C49E409C918091920314B7900240C
:103BF000DB0708D44B795B07DC0F002B03DA0422C8
:103C00004B7993434B71286800F08AFE200070BD09
:103C1000E40D0020AC0D002070B57F250F4C0D4049
:103C20006D0064190600C809241820346579002045
:103C3000ED0700D570BD0125607928436071300023
:103C4000FFF78CF80028F5D1012263799343637163
:103C50006379033293436371ECE7C046AC0D0020F7
:103C600070B50A4E0500300008220C00FEF7D8FBA4
:103C700000237F21F3602278B36091425B412800EA
:103C8000D90100220023FFF769F870BD500D002014
:103C9000F8B5CE46474691462A4E80B50822070021
:103CA00030000D009846FEF7BBFB4B46B360002387
:103CB000F381EC79A97924020C43231C444500D9F3
:103CC00043469AB29046B381002C13D0002A1FD0ED
:103CD0004B46002B34D0131C402A1FD89BB2984669
:103CE00033787F2B20D80021174A43463800FFF74E
:103CF00035F809E07F222B7838009A42644100238E
:103D00000022E101FFF72AF8C0BCB946B046F8BD71
:103D100033787F2B11D980210022E6E740239BB224
:103D2000984633787F2BDED9074C4246494620001F
:103D3000FEF776FB80212200D7E700210022D4E79E
:103D40000020E1E7500D00206C0D002010B514227A
:103D500000210248FEF75EFB10BDC046500D00205A
:103D6000014B18617047C046500D002010B5054C3E
:103D7000010008222000FEF753FB0023A360E3604C
:103D800010BDC046500D0020F8B5374D1C002B78F3
:103D90000600DA09C9098A420CD00027002C01D09C
:103DA0003800F8BD314B0137002BF9D02900FEF760
:103DB00013FFF5E7A8687F2B06D8002838D022002B
:103DC0002B49FEF72DFBA868EA89EB88121992B2FD
:103DD0000019EA81A860934215D03F2C13D9AC8911
:103DE000A11A0F1C89B240292ED82B78BFB27F2B85
:103DF0002CD80021A24235D01D4A3B003000FEF7EE
:103E0000ADFF0700CCE72B69002B04D02900300060
:103E1000984700280ED07F2200212B7830009A424C
:103E2000494100230022C901FEF798FF0700B7E7C8
:103E30000027B5E700213000FEF7A6FF8021300003
:103E4000FEF7A2FF0127ABE74027CEE78021A24281
:103E500008D0074C01003A002000FEF7E1FA80216B
:103E60002200CAE70022C8E7500D0020D92B00101D
:103E70006C0D002010B50400FFF70CF9002801D1EB
:103E8000002010BDFFF70EF90028F9D160000419D9
:103E9000230104481C1B2401041901202379184024
:103EA000EFE7C046800A002043001B1810B5180138
:103EB000C01A0001024B1030C01800F0BDFA10BD4E
:103EC000800A0020F0B5440020180401241A2401BF
:103ED0002600C646174F1036F61900B5300092B2CC
:103EE00000F018FB0500300000F0B2FA3F2803D8BC
:103EF000280080BCB846F0BD3B190020D978984610
:103F0000FFF732FE0028F3D0300000F0A1FA3F287E
:103F10000AD994239B00E2184346D219D97800208D
:103F20004023FFF779FEE3E743460020D978FFF707
:103F30004DFEDDE7800A0020F8B54400201804019A
:103F4000241A240125001B4E2835AD19280000F045
:103F500073FA002801D10020F8BD37190020B97884
:103F6000FFF702FE0028F6D0A4239B009C46644481
:103F7000A41928004022210000F0CCFA051E03D02D
:103F8000FFF788F8002804D1B9780020FFF71EFE5B
:103F9000E1E7FFF787F8B9780028F6D13B79DB072E
:103FA000F3D52B0022000020FFF736FE0028D2D0E8
:103FB0002800D1E7800A002043001B1870B51C01BF
:103FC000E41A2401094B2834E418050092B22000B9
:103FD00000F05AFB0600200000F02EFA3F2801D81E
:103FE000300070BD2800FFF7A7FFF9E7800A002026
:103FF00043001B1810B51801C01A0001024B2830ED
:10400000C01800F025FA10BD800A0020B42270B557
:104010001A4C82B0002120009200FEF7FBF9FF232A
:104020006371174B8025E3800123002621002000C7
:1040300023816D00073323732A0040310096073B2C
:10404000103000F0BDF92100200041312A00FF317D
:1040500001230096283000F0B3F990239B00E51867
:104060002800FDF779FA92239B006562E518280085
:10407000FDF772FAE56302B070BDC046800A002009
:1040800000C2FFFF10B5074C052200212000FEF7FB
:10409000C1F92000103000F077FB2000283000F03C
:1040A00073FB10BD800A0020F0B54B79060083B089
:1040B000022B02D18B79022B03D00025280003B0FC
:1040C000F0BDCB79062BF8D82F4FBB78002BF4D15D
:1040D0008B7809253B700C780C196378242B0BD155
:1040E000082A02D80FE0AA420DD32378E418ED186D
:1040F0006378ADB2242BF6D0052B20D0042B02D14F
:1041000063790A2B2ED0214C200000F0A1F93F2822
:10411000D4D92600103E0020F178FFF725FD0028B5
:10412000CCD0200000F094F93F2816D990239B00B2
:10413000E218F17840230020FFF76EFDBEE7210072
:104140003000FFF70DFD0028B7D0A3787B702378EF
:10415000ED18E4186378ADB2D0E7F1780020FFF7EE
:1041600035FDABE70A4B2778019301330093022218
:1041700002233000E119FFF7BFFC00289DD00E3567
:10418000ED19ADB2BFE7C046800A0020900A0020BA
:10419000820A002060230A7870B513400024202B87
:1041A0000BD10B4A4B790D7910781B022B439842A7
:1041B00003D14B780134202B01D0200070BD054B7A
:1041C000002BFAD00020911DFEF79CFAF5E7C046BF
:1041D000800A00200527001060230A7870B513407C
:1041E0000024202B11D1144A4B790E7915781B022B
:1041F00033439D4209D14B78212B08D81F2B04D97A
:1042000007230632FFF744FD0124200070BD222B56
:10421000FBD1CD788B782D021D431571FFF720FD62
:10422000064B0124002BF0D029006A080020224010
:10423000214000E000BFE8E7800A00200000000005
:10424000F0B546464F46D646C0B54D4E9946F37832
:1042500080460D008B4257D14B46002B00D188E0A1
:10426000484B002B00D175E094239B00F418A24624
:104270003700CA4410372100380000F0C3F97379C1
:10428000FF2B02D02178994243D001345445F2D11A
:104290003D4B002B04D0380000F0CEF800286BD145
:1042A000380000F0D5F83F2837D8103FBB789D4242
:1042B00006D001242000E0BCBA46B146A846F0BDB5
:1042C000324B002B02D0002000E000BF0020FFF79F
:1042D00033FE0028EDD12E4D280000F0ADF8002867
:1042E000E7D14B46002BE4D09B06E2D1283D404667
:1042F000A978FFF739FC041EDBD0002300224046DA
:10430000A978FFF789FCD5E7B3788B42D8D0002491
:10431000D0E7002000E000BFB7E73C00103C0020E1
:10432000E178FFF721FC002812D0380000F090F867
:104330003F2809D990239B00FA1800204023E178F8
:10434000FFF76AFCA378B2E70020E178FFF73EFCB4
:10435000A378ACE794239B00F418A24610363700EC
:10436000CA4421003800013400F04CF95445F8D11A
:104370008EE7103637008BE7002000E000BF8FE7A4
:10438000800A002000000000000000000000000083
:10439000A80A002070B5064D2C78002C01D0200012
:1043A00070BDFEF787FE0028F9D001232B70F6E7D9
:1043B00029160020014B18787047C04629160020A6
:1043C000F0B5C64600B5140006AA1E001378802278
:1043D00005000F009846120294422BD8406900282D
:1043E0001AD00121494200F0B3FA4346AC80640080
:1043F000A4B22B72631EAB81002368696442EB8117
:104400002F60EE806C812B82002811D000F088FA9A
:10441000012080BCB846F0BDAC806400A4B22B7211
:10442000631E6442E8812960EE80AB816C81288242
:104430000120EEE70020ECE710B5C489018A0200F4
:10444000601A80B28C4202D25389C01A80B210BD69
:1044500010B5C489018A8388621A92B28C4202D252
:104460004089121A92B2981A80B210BDF8B50400B1
:1044700040690E00002803D00121494200F068FA8B
:10448000E189228A8FB28D1A93B2ADB2914202D2E3
:104490006289AD1AADB2A288A189AA4205D2B81A22
:1044A00088422BDC80B215002082002D2ED08B425A
:1044B00006D961895B189BB29A4203D89B1A9BB2BA
:1044C0009A42FBD9E288216853433000C918FDF7AE
:1044D000A7FF012501200126A189228A93B2121883
:1044E0008A4210DD62899B18ED18ADB260692582A1
:1044F000002801D000F014FA3000F8BD60891018CF
:10450000381A80B2CFE75D19ADB2EFE70020002680
:10451000E3E7C046F0B5C646040040698846170088
:1045200000B5002803D00121494200F011FAE089CA
:10453000218A82B2461A8BB2B6B2884202D261890F
:10454000761AB6B2A588A189B54207D2531B8B4211
:104550002CDC9BB22E002382238A9BB2002E2CD00F
:104560003A1CB74227D896B28B4202D962899B186F
:104570009BB29D4203D85B1B9BB29D42FBD9E28854
:104580002068110084465943981937006144A842B5
:1045900027DC72434046FDF743FF228AA18993B28C
:1045A000D2198A420FDC9B199BB210E06389EB1889
:1045B000D31A9BB2CEE7321CD5E70027228A93B2EA
:1045C000D2198A42EFDD62899B18F3189BB26069A9
:1045D0002382002801D000F0A3F9300080BCB84647
:1045E000F0BDED1AADB26A434046FDF719FFE3880E
:1045F000721B1800684321685A434044FDF710FFBE
:10460000A189DBE7F8B5040040690E00002803D05B
:104610000121494200F09CF9E289218A95B2531A9E
:104620009BB2914202D962899B1A9BB2A2889A429C
:1046300026D0A1892B00A94206D26389EB189BB230
:104640009A4203D89B1A9BB29A42FBD9E28821680E
:104650005343C8183100FDF7E3FEA389AB420AD9E2
:104660000135ADB260690127E581002801D000F075
:1046700057F93800F8BD6389ED180135ADB2F1E79F
:10468000277A002FD5D1F4E7F0B54F46D6464646F7
:104690000400C0B515000F00002A57D0406900285B
:1046A00003D00121494200F053F9E388E6899A4694
:1046B000208A237AA188B6B280B2002B3BD1331A6C
:1046C0009BB2864202D260891B1A9BB2CB1A181C7D
:1046D0009BB2AB4252D883B298461D00A0893300EA
:1046E000864205DD6389F3189BB201E05B1A9BB239
:1046F0008B42FBD250462268584394465A19604474
:104700008A4229DC524639006A43FDF789FEA389B3
:1047100075199D421DDD6389F6184644B6B260697D
:10472000E681002801D000F0FBF84046E0BCBA4624
:10473000B146A846F0BDA8468D42CFD953466D1A62
:104740005D4388467F19E0810D00C7E70023984646
:10475000EBE74644B6B2E2E7C91A8BB25246994635
:1047600039005A43FDF75CFE4B46E188EA1A4A439A
:10477000594320687918FDF753FEC8E7281C83B217
:1047800098461D00AAE7C04610B5040040690028FD
:104790000DD00121494200F0DBF800236069E3817C
:1047A0002382002801D000F0BBF8012010BDE08179
:1047B0002082FAE710B5010000230022002000F05B
:1047C00043F810BD70B5074D074C641BA41005D00D
:1047D000013CA300EB589847002CF9D100F09CF85D
:1047E00070BDC0466C0700206C07002010B5830721
:1047F0000AD00300032102E001330B4205D01A78EE
:10480000002AF9D1181A10BD030019680C4A0D4C82
:104810008A188A4322420FD15968094A04338A18F8
:104820008A43224208D15968054A04338A188A43C8
:104830002242F1D000E001331A78002AFBD1E1E7EF
:10484000FFFEFEFE80808080F0B5D6464F4646468D
:10485000C0B5274F82B006003868914698468A4610
:1048600000F056F8234B1B680193A423019A5B00C8
:10487000D558002D31D06C6838681F2C32DC002EE2
:104880000ED1631C6B6053460234A400635100F0E8
:1048900041F8002002B0E0BCBA46B146A846F0BDDF
:1048A00088224946A300EB189950C42149008C4640
:1048B000AC446146873AA2406746096811433960B3
:1048C0008421474649005F50022EDAD12B008D33F8
:1048D000FF3319680A431A60D3E715004D35FF35D9
:1048E000D550C8E700F016F801204042D2E7C04694
:1048F00048070020B04C0010034B10B5002B02D02D
:104900000248FFF757FF10BD00000000C547001028
:104910007047C0467047C046F8B5C046000000006A
:1049200001B40248844601BC604700BFE901002091
:1049300001B40248844601BC604700BF1102002058
:1049400001B40248844601BC604700BF0D0100204D
:1049500001B40248844601BC604700BF51010020F9
:1049600001B40248844601BC604700BFC10000207A
:104970003F066D4F565B7B0E7F5F777C395E7971AA
:104980003D76061F763815543F7367506D783E1C90
:104990002A766E5B4E6F207370696E6C6F636B73FB
:1049A0002061726520617661696C61626C650000EE
:1049B000486172647761726520616C61726D202557
:1049C0006420616C726561647920636C61696D65F6
:1049D000640000000A2A2A2A2050414E4943202A16
:1049E0002A2A0A000A000000486172642061737379
:1049F0006572740052656C6561736500626F6F74F7
:104A0000325F77323571303830000000312E312E70
:104A1000300000007069636F000000006932635F5E
:104A20003773656700000000417072202035203226
:104A30003032310006005250BBFF3CB6144A001021
:104A400006005250E182887FFC4900100600525057
:104A5000D3F07542F44900100D0A000059260010E9
:104A60005D2600106926001099260010912600107E
:104A700095260010000000005553422073746469AD
:104A80006E202F207374646F7574000006005250FE
:104A900053B4F4A1784A0010526173706265727267
:104AA00079205069000000005069636F0000000029
:104AB00030303030303030303030303000000000B6
:104AC000426F617264204344430000005265736585
:104AD0007400000009025400030100A07D080B00CF
:104AE0000202020000090400000102020004052481
:104AF000002001052401000104240202052406000F
:104B0000010705810308001009040100020A0000E2
:104B1000000705020240000007058202400000096C
:104B200004020000FF00010512010002EF02014033
:104B30008A2E0A00000101020301000000000000AB
:104B4000984A0010A84A0010B04A0010C04A00104D
:104B5000CC4A0010556E68616E646C6564204952E1
:104B60005120307825780A0049736F6368726F6E40
:104B70006F757320774D61785061636B657453690D
:104B80007A6520256420746F6F206C617267650000
:104B900065702025642025732077617320616C7215
:104BA0006561647920617661696C61626C650000A1
:104BB00043616E277420636F6E74696E756520782B
:104BC000666572206F6E20696E6163746976652018
:104BD0006570202564202573000000005472616E0A
:104BE00073666572726564206D6F726520646174AE
:104BF00061207468616E2065787065637465640017
:104C00006F757400696E0000863100104633001025
:104C1000E63200109C320010863200107A3200100A
:104C20002A320010D8310010CC3100101436001098
:104C3000F6350010683200109E3600106832001001
:104C4000823600106E3600106832001058360010A0
:104C500036360010683200102E390010243900104A
:104C6000183900106832001068320010FA3800104D
:104C7000683200106832001068320010683200108C
:104C8000683200106832001068320010683200107C
:104C9000CA3800100D40001085400010A9400010D7
:104CA000D941001095410010414200100000000061
:044CB00020030020BD
:104CB400B4020010A80200109C020010344A001034
:104CC40090020010404A00104C4A00108C4A001018
:104CD40010B502680024EFF3108172B61368002B3C
:104CE400FCD0BFF35F8F03797F2B0BD80368BFF32E
:104CF4005F8F1C6081F3108820BF0268EFF310817E
:104D040072B6EBE7D0231B061B6803710368BFF37D
:104D14005F8F00221A6081F3108810BD03000068C1
:104D2400EFF3108C72B60268002AFCD0BFF35F8FD9
:104D340004229A56002A0BDB00290FD000200A60B7
:104D44001B68BFF35F8F00221A608CF310887047D2
:104D5400D0221206126801201A71F1E70020EFE751
:104D6400F0B5C64600B50C00804600F05DF8FA22A6
:104D740006000F00200000230021920000F064F8D8
:104D84008019794104000D008F4230D82DD00026BF
:104D940043461A68EFF3108172B61368002BFCD0F7
:104DA400BFF35F8F43461B797F2B0ED843461B68A6
:104DB400BFF35F8F1E6081F310882000290000F08C
:104DC4003BF80028E4D000200CE0D02342461B0628
:104DD4001B6813711368BFF35F8F00221A6081F39D
:104DE4001088012080BCB846F0BD8642CFD901248A
:104DF4006442E517CBE7C0460268EFF3108172B650
:104E04001368002BFCD0BFF35F8FFF23037140BFF7
:104E14000368BFF35F8F00221A6081F31088704724
:104E24007047C0460000000001B40248844601BC3B
:104E3400604700BF7513001001B40248844601BCEA
:104E4400604700BF3D11001001B40248844601BC14
:104E5400604700BF412300101000000064020020DE
:104E64000000000070070020E80E00200000000091
:104E740000000000F80E0020000000000000000008
:104E8400100000000000000000000100000000000D
:104E9400000000000000020000000000000000000C
:104EA4000000030000000000000000000000FF00FC
:104EB4000000000000B5486801318E460047704686
:104EC40009380149884700BDA120001000000000F6
:104ED400503300004C3300005433000052330000C0
:104EE4004D5300004D430000533400004334000090
:104EF400A127001000000000392700100000000066
:104F040000010000004C0010044C0010EC0D0020C7
:104F140010000C0000000000000000000000000071
:104F2400000000000000000000000000000000007D
:104F3400000000000C06002074060020DC0600209F
:104F4400000000000000000000000000000000005D
:104F5400000000000000000000000000000000004D
:104F6400000000000000000000000000000000003D
:104F7400000000000000000000000000000000002D
:104F8400000000000000000000000000000000001D
:104F9400000000000000000000000000000000000D
:104FA40000000000000000000000000000000000FD
:104FB40000000000000000000000000000000000ED
:104FC40000000000000000000000000000000000DD
:104FD40000000000000000000100000000000000CC
:104FE4000E33CDAB34126DE6ECDE05000B00000091
:104FF40000000000000000000000000000000000AD
:10500400000000000000000000000000000000009C
:10501400000000000000000000000000000000008C
:10502400000000000000000000000000000000007C
:105354000000000000000000780A002000000000A7
:105364000000000005240010CD210010952200103B
:0C53740075230010F9480010C50200105D
:04000005100001E9FD
:00000001FF
